:100000000C9434000C9476000C9451000C94510024
:100010000C9451000C9451000C9451000C9451001C
:100020000C9451000C9451000C9451000C9451000C
:100030000C9451000C94A2010C9451000C945100AA
:100040000C9451000C9451000C9451000C945100EC
:100050000C9451000C9451000C9451000C945100DC
:100060000C9451000C94510011241FBECFEFD8E026
:10007000DEBFCDBF11E0A0E0B1E0E4EAF5E002C0F0
:1000800005900D92AE30B107D9F711E0AEE0B1E0C6
:1000900001C01D92A437B107E1F70E942C020C9415
:1000A000D0020C94000052985A9AE9E6F0E0808160
:1000B00083608083089552985A9AE9E6F0E080813F
:1000C00083608083F894E0E8F0E080818C7F808317
:1000D000E1E8F0E08081877E8083EFE6F0E08081D8
:1000E00081608083E89AE998789408951F920F922E
:1000F0000FB60F9211242F938F939F93EF93FF933B
:100100002FB720931701F894E1E8F0E08081816037
:100110008083EFE6F0E08081816080838FE791EC5F
:1001200090938500809384002FBFFF91EF919F9162
:100130008F912F910F900FBE0F901F901895809167
:100140000E018430D1F08F5F80930E012FB7209382
:100150001701F894809181008160809381008091E3
:100160006F00816080936F008FE791EC9093850022
:10017000809384002FBF80E0089510920E0180913B
:1001800081008E7F809381008AE208953FB730938B
:100190001701F894E1E8F0E0208121602083EFE688
:1001A000F0E02081216020838095909590938500D8
:1001B000809384003FBF0895E0E8F0E080818C7F69
:1001C0008083E1E8F0E08081877E8083EFE6F0E0E5
:1001D00080818160808308955A9A80E69DE6019728
:1001E000F1F75A9880EE9EE20197F1F781E00895C9
:1001F0005A9A80EE9EE20197F1F75A9880E69DE6C2
:100200000197F1F781E008955A9A28EC30E040E92F
:1002100051E0CA010197F1F721503040D1F708951C
:100220005A9880E49CE90197F1F75A9A80EA9FE096
:100230000197F1F75A9880EA9CE80197F1F7089541
:10024000282F30E0A901440F551F220F331F220F22
:10025000331F42274827220F331F4227220F331F05
:100260004227220F331F4227220F331F4227220F1C
:10027000331F4227842F80780895A82F529A5A98C6
:1002800080E49CE90197F1F75A9A80EA9FE0019790
:10029000F1F75A9880EA9CE80197F1F74A2F50E06D
:1002A00020E030E0E0EEFEE260E67DE60DC05A9A26
:1002B000CB010197F1F75A98CF010197F1F72F5F22
:1002C0003F4F28303105B1F0CA01022E02C095958A
:1002D00087950A94E2F780FDEACF5A9ACF010197F9
:1002E000F1F75A98CB010197F1F72F5F3F4F283074
:1002F000310551F78A2F0E9420018823C1F05A9AB4
:1003000080E69DE60197F1F75A9880EE9EE201970C
:10031000F1F75A9A28EC30E040E951E0CA01019720
:10032000F1F721503040D1F7529881E008955A9A60
:1003300080EE9EE20197F1F75A9880E69DE60197DC
:10034000F1F7E7CF1F920F920FB60F9211241F9370
:100350002F933F934F935F936F937F938F939F93CD
:10036000AF93BF93EF93FF93109106011436D1F42E
:10037000809110018823E1F1109210014A9B51C035
:10038000FF91EF91BF91AF919F918F917F916F916D
:100390005F914F913F912F911F910F900FBE0F9042
:1003A0001F9018950E949F00882351F3183009F47C
:1003B00040C04A9939C084E091E00E94A20289B10C
:1003C0003091060190E08470907095958795959591
:1003D0008795032E02C0880F991F0A94E2F7209197
:1003E0000F01282B20930F013F5F30930601C8CFE8
:1003F00081E0809310012FB720931701F89480912A
:10040000810081608093810080916F008160809382
:100410006F008FEF92E890938500809384002FBF48
:10042000AFCF10920601ACCF82E091E00E94A20211
:10043000C6CF80E091E00E94A20280910F010E944D
:10044000570284E68093060110920F0180916F009D
:100450008E7F80936F0094CFCF93DF93559A5D98F2
:100460000E94C4020E94980287E091E00E94A202CA
:10047000C0E9D1E080911201882389F01092120125
:10048000809111010E94BC0288E893E1FE0131973E
:10049000F1F70197D9F780911201882379F78BE062
:1004A00091E00E94A202F0CF10921801089591E00D
:1004B0009093120180931101089580911501282FC6
:1004C00030E0C901880F991FFC01EE0FFF1FEE0FEE
:1004D000FF1FEE0FFF1FE80FF91FE45DFE4F809135
:1004E0001901808380911B018183809114018823ED
:1004F000C9F0ACE1B1E0F901EE0FFF1FEE0FFF1FF5
:10050000EE0FFF1FE20FF31FEE0FFF1FE25DFE4F26
:100510008150282F30E0235E3E4F8D918193A217AA
:10052000B307D9F708958091180110921801089522
:10053000109213011092150180E1809314010E9422
:100540005B000895DC01EC91EE2371F090E0809166
:10055000C00085FFFCCFE093C6009F5FFD01E90F5F
:10056000F11DE081EE2399F708958091C00087FF87
:10057000FCCF8091C6000895982F8091C00085FF20
:10058000FCCF9093C60008951092C50087E6809333
:10059000C40088E18093C1008EE08093C20008957A
:0405A000F894FFCFFD
:0E05A400500031003000642E0D0A005F000090
:00000001FF
